:100000000240880245F97F19DFFE2202496B7FA07A
:10001000DFFE2202443A7F2CDFFE22023891900B51
:1000200096120F7C00000000900B9A120F7C0000CB
:100030000FFF900B9E120F7C00000000900BA2128D
:100040000F7C00000000200203020122900981E0E1
:100050009009A8F0E4900B90F0A3F0900B90E0FED4
:10006000A3E0FFC394DCEE64809480503AEF25E077
:10007000FFEE33FE9007AFE0FBA3E0FAA3E0F98FB9
:10008000828E83120D80FD74B22FF58274073EF5C7
:1000900083E5F0F0A3EDF0900B91E004F070BC90DC
:1000A0000B90E004F080B49009A5746EF0D2089033
:1000B0000B90E4F0A3742FF0900B90E0FEA3E0FF10
:1000C000C394ADEE648094805053EF25E0FDEE3391
:1000D000FC74B22DF58274073CF583E0FEA3E0FFCB
:1000E00074B42DF58274073CF583E0FCA3E0FD9029
:1000F0000975E0FAA3E0FBA20A9214124692500D91
:10010000900B90A3E09009A5F0C2088010900B918D
:10011000E004F070A3900B90E004F0809BE4900961
:1001200099F0E4900B90F0A3F0900999E0FF3395DB
:10013000E0FEEF25E0FFEE33FE9009A5E075F0024A
:10014000A4244EF582E5F03407F583E5822FF5828D
:10015000E5833EF583C083C082900B91E025E0FFEC
:10016000900B90E033FED082D083E5822FF582E5BC
:10017000833EF583E0FEA3E0FFE4FCFD900B9212CA
:100180000F70900B96E0FCA3E0FDA3E0FEA3E0FF60
:10019000900B92E0F8A3E0F9A3E0FAA3E0FBD312FE
:1001A0000EE34011900B92E0FCA3E0FDA3E0FEA360
:1001B000E0FFA38033900B9AE0FCA3E0FDA3E0FEF8
:1001C000A3E0FF900B92E0F8A3E0F9A3E0FAA3E02C
:1001D000FBC3120EE35014900B92E0FCA3E0FDA3CE
:1001E000E0FEA3E0FF900B9A120F70900B91E004D9
:1001F000F07006900B90E004F0900B90E07004A378
:10020000E064656003020129900B96E0FCA3E0FD29
:10021000A3E0FEA3E0FF90042B120F70900B9AE076
:10022000FCA3E0FDA3E0FEA3E0FF900427120F7003
:100230009009A2E0FBA3E0FAA3E0F9900973E0FFC4
:10024000A3E0900BADCFF0A3EFF0900977E0FFA310
:10025000E0900BAFCFF0A3EFF0900B961243D89045
:1002600009D4120F709009A2E0FBA3E0FAA3E0F911
:10027000900973E0FFA3E0900BADCFF0A3EFF090F7
:100280000977E0FFA3E0900BAFCFF0A3EFF0900B66
:100290009A1243D89009CF120F70900986E0F8A304
:1002A000E0F9A3E0FAA3E0FB900B96E0FCA3E0FDED
:1002B000A3E0FEA3E0C39BFFEE9AFEED99FDEC9850
:1002C000FCC0079009A2E0FBA3E0FAA3E0F99009C3
:1002D00073E0FFA3E0900BADCFF0A3EFF0900977B0
:1002E000E0FFA3E0900BAFCFF0A3EFF0D0071243F5
:1002F000E3900995120F70900986E0F8A3E0F9A346
:10030000E0FAA3E0FB900B9AE0FCA3E0FDA3E0FE83
:10031000A3E0C39BFFEE9AFEED99FDEC98FCC007AD
:100320009009A2E0FBA3E0FAA3E0F9900973E0FFD3
:10033000A3E0900BADCFF0A3EFF0900977E0FFA31F
:10034000E0900BAFCFF0A3EFF0D0071243E390099A
:1003500091120F70E4FFFEFDFC900995E0F8A3E018
:10036000F9A3E0FAA3E0FBD3120EE3500302040565
:10037000E4FFFEFDFC900991E0F8A3E0F9A3E0FAA8
:10038000A3E0FBD3120EE3407C900995E0FCA3E0D0
:10039000FDA3E0FEA3E0FFEC120BC57B527A497986
:1003A0009D7839120A0E7B067A817955783E1209BA
:1003B0001DC004C005C006C007900995E0FCA3E07D
:1003C000FDA3E0FEA3E0FFEC120BC5D003D002D0EA
:1003D00001D000120A0E120C03900995120F7090B2
:1003E0000991E0FCA3E0FDA3E0FEA3E0FFEC120B0B
:1003F000C57B527A49799D7839120A0E7B067A813B
:10040000795502054C900995E0FCEC334003020459
:100410009F900991E0FCEC33400302049F90099502
:10042000E0FCA3E0FDA3E0FEA3E0FFEC120BC5128D
:100430000BB47B177AB779517839120A0E7BBC7AE4
:10044000747953783E12091DC004C005C006C00768
:10045000900995E0FCA3E0FDA3E0FEA3E0FFEC1211
:100460000BC5D003D002D001D000120A0E120C032B
:10047000900995120F70900991E0FCA3E0FDA3E0B4
:10048000FEA3E0FFEC120BC5120BB47B177AB77911
:10049000517839120A0E7BBC7A74795302054CE408
:1004A000FFFEFDFC900995E0F8A3E0F9A3E0FAA3B4
:1004B000E0FBD3120EE3500302057F900991E0FCAC
:1004C000A3E0FDA3E0FEA3E0FFEC33400302057FC1
:1004D000900995E0FCA3E0FDA3E0FEA3E0FFEC1291
:1004E0000BC57B457AF579D67839120A0E7B867A68
:1004F0005A7953783E12091DC004C005C006C007D2
:10050000900995E0FCA3E0FDA3E0FEA3E0FFEC1260
:100510000BC5D003D002D001D000120A0E120C037A
:10052000900995120F70900991E0FCA3E0FDA3E003
:10053000FEA3E0FFEC120BC5120BB47B7F7A877928
:10054000A27839120A0E7B867A5A7953783E1209BC
:100550001DC004C005C006C007900991E0FCA3E0DF
:10056000FDA3E0FEA3E0FFEC120BC5D003D002D048
:1005700001D000120A0E120C03900991120F709014
:100580000990E0707390041EE0F8A3E0F9A3E0FA8C
:10059000A3E0FBC000C001C002900991E0FCA3E011
:1005A000FDA3E0FEA3E0FF900995E0F8A3E0F9A326
:1005B000E0FAA3E02FFFEA3EFEE93DFDE83CFC78CF
:1005C00001120F1DD002D001D000EB2FFFEA3EFE3A
:1005D000E93DFDE83CFC90041E120F70900426E0FB
:1005E00004FFF03395E0FEC3EF9408EE648094803E
:1005F00050030207210206F1900990E064016003B4
:10060000020721900991E0F8A3E0F9A3E0FAA3E042
:10061000FB900995E0FCA3E0FDA3E0FEA3E0C39BF3
:10062000FFEE9AFEED99FDEC98FC900422120F70FB
:10063000900422E0FCA3E0FDA3E0FEA3E0FFEC12A7
:100640000BC5123581C004C005C006C0077F8D7E72
:10065000977D2E7C40123581A804A905AA06AB0718
:10066000D007D006D005D004120B177B007A917901
:10067000BE783E120A0E7B887A63790578C012092B
:100680001DC004C005C006C007900422E0FCA3E022
:10069000FDA3E0FEA3E0FFEC120BC5D003D002D017
:1006A00001D000120B17120C03900422120F70904D
:1006B000041EE0FCA3E0FDA3E0FEA3E0FFA3E0F83E
:1006C000A3E0F9A3E0FAA3E0FBEF2BFFEE3AFEED87
:1006D00039FDEC38FC90041E120F70900426E004E3
:1006E000FFF03395E0FEC3EF9408EE648094804001
:1006F00030E4F090041EE0FCA3E0FDA3E0FEA3E0E4
:10070000FFEC120BC5E4FBFAF97841120B17120C3F
:100710000390098B120F7090041E120F7C000000D2
:10072000001227759009A2E0FBA3E0FAA3E0F9907C
:100730000973E0FFA3E0900C19CFF0A3EFF090094C
:1007400077E0FFA3E0900C1BCFF0A3EFF090096ED1
:10075000124228900433120F709009A2E0FBA3E02C
:10076000FAA3E0F9900973E0FFA3E0900C19CFF031
:10077000A3EFF0900977E0FFA3E0900C1BCFF0A36C
:10078000EFF090096A12422890042F120F70900B1C
:100790009AE0FCA3E0FDA3E0FEA3E0FF900B96E04F
:1007A000F8A3E0F9A3E0FAA3E02FFFEA3EFEE93D5B
:1007B000FDE83CFC7801120F1D900B9E120F70900B
:1007C000042FE0FCA3E0FDA3E0FEA3E0FFA3E0F81C
:1007D000A3E0F9A3E0FAA3E02FFFEA3EFEE93DFD26
:1007E000E83CFC7801120F1D900BA2120F70900BC9
:1007F000A2E0FCA3E0FDA3E0FEA3E0FF900B9EE0DF
:10080000F8A3E0F9A3E0FAA3E0FBC3120EE350055E
:10081000900B9E8003900BA2E0FCA3E0FDA3E0FE02
:10082000A3E0FFD2111215F0403B900BA2E0FCA315
:10083000E0FDA3E0FEA3E0FF900B9EE0F8A3E0F94B
:10084000A3E0FAA3E0FB120EE35005900B9E800399
:10085000900BA2E0FCA3E0FDA3E0FEA3E0FFC21129
:100860001215F05005121D72800A90097A120F7C41
:1008700000000000E4900B90F0A3F0900B90E0FEDD
:10088000A3E0FFC394DCEE6480948040030209156A
:10089000EF25E0FFEE33FE74B22FF58274073EF5CC
:1008A00083E0FEA3E0FFC006900433A3A3E0FEA311
:1008B000E0FDAC0690042FA3A3E0FEA3E0FBAA0694
:1008C000900BACE4F0A37435F0A3E4F0A3740AF049
:1008D000D006123D59E4FCFDC004C005C006C007A7
:1008E000900B90E0FEA3E07802C333CE33CED8F96C
:1008F0002437F58274043EF583D007D006D005D0A6
:1009000004120F70900B91E004F07006900B90E0D1
:1009100004F002087B22020C6FE86480F8E933E8F7
:100920003360110460F0ED33EC337009E8FCE9FD4D
:10093000EAFEEBFF220460DED3EB9FEA9EE99DE82E
:10094000C2E78CF0C2F795F0400CE8CCF8E9CDF99D
:10095000EACEFAEBCFFB120C3A85D0F058047003C4
:1009600020D5B3E80470075002B2D5020C7992D5B5
:10097000EC0460F7E4CCC0E0C398F8603B941860E6
:1009800008400DD0E0FB020C51E4FBFAC9FC8028C2
:10099000E830E406E4C9FBE4CAFCE830E305E4C956
:1009A000CACBFCE854076010F8C3E913F9EA13FA5C
:1009B000EB13FBEC13FCD8F130F52FC3E49CFCEFF8
:1009C0009BFFEE9AFEED99FDD0E0FBEF4E4D4C7093
:1009D0001222DB03020C76EC2CFCEF33FFEE33FE2D
:1009E000ED33FDED30E7EB020C51EF2BFFEE3AFE5D
:1009F000ED39FDD0E0FB50130BBB0003020C79ED89
:100A000013FDEE13FEEF13FFEC13FC020C51EC4D43
:100A10006011E8497017ED33EC3304600DE4FCFF1E
:100A2000FEFD22E933E8330470F8020C6F120C3A31
:100A300058046009E4CC24815006285009020C793E
:100A4000284003020C76C0E0EB4A7044B98006D01F
:100A5000E0FB020C65EF4E701CBD8008EBFFEAFE68
:100A6000E9FD80EBE98DF0A4FEE5F0020AF7E9CD9F
:100A7000F9EAFEEBFFEF89F0A4FCE5F0CE89F0A4E3
:100A80002EFFE435F0CD89F0A42DFEE435F080672B
:100A9000EF4E7005BD80D780C3EF8BF0A4ACF0EEB5
:100AA0008BF0A42CFCE435F0F8EF8AF0A42CE5F0F0
:100AB00038FCE433CB8DF0A42CFCE5F03BF8EE8A57
:100AC000F0A42CFCE5F038F8E433CF89F0A42CFC3A
:100AD000E5F038CF3400CE89F0A42FFFE5F03EFEDC
:100AE000E433C98DF0A42EFEE5F039CD8AF0A42FB1
:100AF000FFE5F03EFEE43DFD33D0E0FB50070BBBCD
:100B0000000F020C79EC2CFCEF33FFEE33FEED33DB
:100B1000FD020C51020C79EC5D046005E85904708B
:100B200003020C6F120C3A580460F6EC4860F2ECC9
:100B30007004FDFEFF22C860DB2481C85009C39801
:100B400060025006020C769850CAF582E9294B4A99
:100B50007005AB82020C6575F0007C1A7880C3EFDB
:100B60009BEE9AED99400DC3EF9BFFEE9AFEED9937
:100B7000FDE842F0DC23ACF0D0E0FFD0E0FED0E0B6
:100B8000FDAB8220E7101BEB60BAEC2CFCEF33FFCF
:100B9000EE33FEED33FD020C51E803F830E705C0FB
:100BA000F075F000EF2FFFEE33FEED33FD40B8306F
:100BB000E7C280AAED33EC33600A047003BD800401
:100BC000ECB2E7FC2275F020800E75F01080057500
:100BD000F0087D007E007F003392D530D503120EE1
:100BE000D5EC334010EF33FFEE33FEED33FDEC3345
:100BF000FCD5F0ED22E5F0247EA2D513CC92E7CD12
:100C0000CEFF22EDD2E7CD33EC3392D524814006DE
:100C1000E4FFFEFDFC22FCE4CFCECDCC24E050115D
:100C200074FF80EDC3CC13CCCD13CDCE13CECF1338
:100C3000CF0470F030D5DE020ED5E9D2E7C933E833
:100C400033F892D5EDD2E7CD33EC33FC5002B2D578
:100C500022EC30E7100FBF000C0EBE00080DBD00E7
:100C6000040BEB6014A2D5EB13FCED92E7FD2274AC
:100C7000FFFCFDFEFF22E480F8A2D574FF13FC7D8B
:100C800080E480EFC0E0EFFBEEFAEDF9ECF8120A39
:100C90000ED0E0F5F0EFFBEEFAEDF9ECF8120F44B0
:100CA000A3A3A3A3E8C0E0E9C0E0EAC0E0EBC0E092
:100CB000C0F0120A0E120F60A3A3A3A312091DD045
:100CC000F0D0E0FBD0E0FAD0E0F9D0E0F8D5F0D4F5
:100CD00022BB010689828A83E0225002E722BBFE02
:100CE00002E32289828A83E49322BB010CE58229F4
:100CF000F582E5833AF583E0225006E92582F8E69D
:100D000022BBFE06E92582F8E222E58229F582E58A
:100D1000833AF583E49322BB010689828A83F02219
:100D20005002F722BBFE01F322C5F0F8A3E028F041
:100D3000C5F0F8E582158270021583E038F022A331
:100D4000F8E0C5F025F0F0E582158270021583E029
:100D5000C838F0E822BB010A89828A83E0F5F0A353
:100D6000E022500687F009E71922BBFE07E3F5F001
:100D700009E3192289828A83E493F5F074019322AE
:100D8000BB0110E58229F582E5833AF583E0F5F0B1
:100D9000A3E0225009E92582F886F008E622BBFE8E
:100DA0000AE92582F8E2F5F008E222E5832AF583D4
:100DB000E993F5F0A3E99322E88FF0A4CC8BF0A49B
:100DC0002CFCE98EF0A42CFC8AF0EDA42CFCEA8E1D
:100DD000F0A4CDA8F08BF0A42DCC3825F0FDE98F40
:100DE000F0A42CCD35F0FCEB8EF0A4FEA9F0EB8F37
:100DF000F0A4CFC5F02ECD39FEE43CFCEAA42DCE04
:100E000035F0FDE43CFC2275F008758200EF2FFF01
:100E1000EE33FECD33CDCC33CCC58233C5829BEDD2
:100E20009AEC99E58298400CF582EE9BFEED9AFDD6
:100E3000EC99FC0FD5F0D6E4CEFBE4CDFAE4CCF986
:100E4000A88222B800C1B90059BA002DEC8BF084F9
:100E5000CFCECDFCE5F0CBF97818EF2FFFEE33FEC7
:100E6000ED33FDEC33FCEB33FB10D703994004EB7F
:100E700099FB0FD8E5E4F9FA227818EF2FFFEE334B
:100E8000FEED33FDEC33FCC933C910D7059BE99A5D
:100E90004007EC9BFCE99AF90FD8E0E4C9FAE4CCEE
:100EA000FB2275F010EF2FFFEE33FEED33FDCC3358
:100EB000CCC833C810D7079BEC9AE899400AED9B41
:100EC000FDEC9AFCE899F80FD5F0DAE4CDFBE4CC20
:100ED000FAE4C8F922C3E49FFFE49EFEE49DFDE42A
:100EE0009CFC22EB9FF5F0EA9E42F0E99D42F0EC7B
:100EF0006480C864809845F022EB9FF5F0EA9E423A
:100F0000F0E99D42F0E89C45F022E8600FECC31345
:100F1000FCED13FDEE13FEEF13FFD8F122E8601095
:100F2000ECA2E713FCED13FDEE13FEEF13FFD8F078
:100F300022E8600FEFC333FFEE33FEED33FDEC33F9
:100F4000FCD8F122E493FC740193FD740293FE74C7
:100F50000393FF22E0F8A3E0F9A3E0FAA3E0FB2269
:100F6000E493F8740193F9740293FA740393FB22E7
:100F7000ECF0A3EDF0A3EEF0A3EFF022A8828583BE
:100F8000F0D083D082120F93120F93120F93120F8F
:100F900093E473E493A3C583C5F0C583C8C582C831
:100FA000F0A3C583C5F0C583C8C582C822EC8EF006
:100FB000A4CCC5F0CCCDF8EFA4CEC5F02DFDE43C1B
:100FC000FCE8A42EC8C5F03DFDE43CFCEFA4FFE521
:100FD000F028FEE43DFDE43CFC22EF4E6012EF60A1
:100FE000010EEDBB010B89828A83F0A3DFFCDEFAE0
:100FF0002289F05007F709DFFCA9F022BBFEFCF3C1
:1010000009DFFCA9F022200D03021189C20D124A4A
:10101000967B047D0A7F20123CAE7B047D357F20C9
:10102000123CAE7B047D0A7F7C123CAE7B047D3596
:101030007F7C123CAE7B057D0A7F37123CAE7B0580
:101040007D357F37123CAE7B057D0A7F50123CAE6A
:101050007B057D357F50123CAE7B057D0A7F691292
:101060003CAE7B057D357F69123CAE7B2C7D0A7FD3
:101070001F123BFA7B2C7D0A7F80123BFAE4900B17
:1010800090F0900B90E0FFC3940F74809480501701
:10109000EF75F007A42420FF7B037D1F123CAE9068
:1010A0000B90E004F080DBE4900B90F0900B90E06C
:1010B000FFC3940674809480503BEF75F008A4241D
:1010C0000BFD7B037F39123BFA900B90E075F00823
:1010D000A4240BFD7B037F52123BFA900B90E0752A
:1010E000F008A4240BFD7B037F6B123BFA900B905E
:1010F000E004F080B77D387F12124B2990099112DD
:101100002541900B91EBF0A3EAF0A3E9F012419F87
:101110007B117D427F32123CAE7B037D3C7F3212DD
:101120003BFA7B037D3C7F42123BFA900999E0FF3A
:101130003395E0FE9009A5E02FFFE43ECF24B0FDFB
:10114000EF34FFFC120BCAE4FBFAF9783F120A0EE7
:10115000E4FBFA79807840120B17E4FBFA795C78AB
:101160004212091D120C037B057D3A123BFA7D38B1
:101170007F43124B29900995122541900B91EBF07A
:10118000A3EAF0A3E9F012419FC212124B60E4FD02
:10119000FF300B0B124B297BFF7A4E793C800912F2
:1011A0004B297BFF7A4E794112419F90097EE0FFE7
:1011B0003395E0FEEF64024E702120031E7B2CFD70
:1011C0007F1C123CAE7B087D017F22123BFA7B081C
:1011D0007D017F47123BFAD2118022D211124B5B64
:1011E0007B2CE4FD7F1C123CAE7B087D017F22122C
:1011F0003BFA7B087D017F47123BFAC211124B5B21
:101200007D017F1C124B297BFF7A4E794612419F4C
:101210009009C7E0FEA3E0FFEE3395E0FDFC122548
:101220004C900B91EBF0A3EAF0A3E9F07D017F2352
:10123000124B29900B91E0FBA3E0FAA3E0F91241D5
:101240009F7D017F41124B297BFF7A4E79481241E5
:101250009FC211124B5B90097EE0FF3395E0FEEFD9
:1012600064034E70192003167B087D017F49123BF1
:10127000FA7B087D017F50123BFAD2118019D211FE
:10128000124B5B7B087D017F49123BFA7B087D0195
:101290007F50123BFAC211124B5B300A047B7B80F9
:1012A000027B7C7D017F4B12341AC211124B5B9082
:1012B000097EE0FF3395E0FEEF64044E70102003DA
:1012C0000D7B087D017F58123BFAD2118010D2119C
:1012D000124B5B7B087D017F58123BFAC211124B07
:1012E0005B7D017F52124B2990098AE0FF3395E024
:1012F000FEEF4E70087BFF7A4E794A802C90098A67
:10130000E0FF3395E0FEEF64014E70087BFF7A4EFC
:10131000794C801590098AE0FF3395E0FEEF640276
:101320004E70097BFF7A4E794E12419FC211124BCB
:101330005B7D017F5C124B297BFF7A4E7950124115
:101340009F7D017F5C124B291219D0900B91EBF01D
:10135000A3EAF0A3E9F012419F7D017F75124B29AA
:101360007BFF7A4E795B12419F7D08E4FF124B2987
:101370007BFF3009067A4E795E80047A4E796312DB
:10138000419F7D11E4FF124B297BFF3008067A4E06
:10139000796880047A4E796D12419F7D1AE4FF12BC
:1013A0004B297BFF7A4E794112419F90097EE0FFE5
:1013B0003395E0FEEF64014E700F20030C7B1E7D21
:1013C00019FF123CAED2118010D211124B5B7B1E62
:1013D0007D19E4FF123CAEC211124B5B90099E12C4
:1013E0002541900B91EBF0A3EAF0A3E9F07D1AE41C
:1013F000FF124B29900B91E0FBA3E0FAA3E0F91256
:10140000419FC211124B5B90097EE0FF3395E0FED5
:10141000EF64054E702220031F7B097D237F191284
:101420003BFA7B097D237F18123BFA7B197D23E46D
:10143000FF123CAED2118022D211124B5B7B097D90
:10144000237F19123BFA7B097D237F18123BFA7B1D
:10145000197D23E4FF123CAEC211124B5B7D247F49
:1014600001124B29900990E070087BFF7A4E797346
:10147000800E900990E0640170097BFF7A4E7978C4
:1014800012419FC211124B5B90098B122541900BA8
:1014900091EBF0A3EAF0A3E9F07D2EE4FF124B29D3
:1014A000900B91E0FBA3E0FAA3E0F912419FC21177
:1014B000124B5B7D387F63124B297BFF7A4E797D1F
:1014C00012419F90097EE0FF3395E0FEEF4E7010D1
:1014D00020030D7B1E7D377F63123CAED21180103E
:1014E000D211124B5B7B1E7D377F63123CAEC21163
:1014F000124B5B7D387F63124B29900981E0FF33EB
:1015000095E0FEEF25E0FFEE33FE74AF2FF5827419
:10151000093EF583E0FEA3E0AA06F97BFF12419F96
:10152000C211124B5B7B0E7D387F01123CAE7B02F9
:101530007D397F0E123CAE7B077D387F01123BFA6E
:101540007B077D387F03123BFA7B077D387F0512CE
:101550003BFA7B077D387F07123BFA9009ADE0FE2E
:10156000A3E0FFC394ACEE940D4011EF94A0EE9471
:101570000F50097B077D387F09123BFA9009ADE0D7
:10158000FEA3E0FFC394A0EE940F401AEF9494EEF4
:10159000941150127B077D387F09123BFA7B077D3F
:1015A000387F0B123BFAC39009AEE094949009ADDA
:1015B000E09411401B7B077D387F09123BFA7B07C3
:1015C0007D387F0B123BFA7B077D387F0D123BFA8B
:1015D0007B057D397F0F123BFA7B027D3D7F0E122A
:1015E0003CAE7B0E7D3E7F01123CAED212024B60C0
:1015F000900BA6120F70900BAC74FFF0A3F0D213F7
:101600002011030216C8900999E0FF3395E0FE907F
:1016100009A5E02FFFE43E900BAAF0A3EFF0900B9A
:10162000AAE0FEA3E0FFC394DAEE64809480400356
:101630000217A2EF25E0FDEE33FC74B22DF58274A3
:10164000073CF583E0FEA3E0FFC00674B42DF582ED
:1016500074073CF583E0FCA3E0FD900BA6A3A3E098
:10166000FEA3E0FBAA06D214D00612469250030253
:101670001731900BABE025E0FD900BAAE033FC7432
:10168000B22DF58274073CF583E0FEA3E0FFC006AF
:1016900074B42DF58274073CF583E0FCA3E0FD9063
:1016A0000BA6A3A3E0FEA3E0FBAA06C214D0061279
:1016B00046925003021782900BABE004F070069044
:1016C0000BAAE004F002161E900999E0FF3395E0A2
:1016D000FE9009A5E02FFFE43E900BAAF0A3EFF0E7
:1016E000900BAAE0FEA3E0FFD39400EE6480948008
:1016F00050030217A2EF25E0FDEE33FC74B22DF586
:101700008274073CF583E0FEA3E0FFC00674B42DAD
:10171000F58274073CF583E0FCA3E0FD900BA6A3E3
:10172000A3E0FEA3E0FBAA06D214D0061246925014
:101730000F900BAAA3E0900BAEF0D212C2138062FE
:10174000900BABE025E0FD900BAAE033FC74B22DCA
:10175000F58274073CF583E0FEA3E0FFC00674B495
:101760002DF58274073CF583E0FCA3E0FD900BA609
:10177000A3A3E0FEA3E0FBAA06C214D00612469281
:10178000500F900BAAA3E0900BAEF0C212C21380D0
:1017900011900BABE024FFF0900BAAE034FFF002B5
:1017A00016E03013030219A8900BAEE0FF900BAACD
:1017B000E4F0A3EFF0900BAAE0FEA3E0FFC3EE6419
:1017C00080948050030218A6301260EF25E0FFEEEF
:1017D00033FE74B22FF58274073EF583E0FEA3E07A
:1017E000FFE4FCFD900BA6E0F8A3E0F9A3E0FAA368
:1017F000E0FBD3120EE34003021895900BABE025FB
:10180000E0FF900BAAE033FE74B42FF58274073E1C
:10181000F583E0FEA3E0FFE4FCFD900BA6E0F8A357
:10182000A3A3E0C3120EE3406C8061900BABE025F4
:10183000E0FF900BAAE033FE74B22FF58274073EEE
:10184000F583E0FEA3E0FFE4FCFD900BA6E0F8A327
:10185000E0F9A3E0FAA3E0FBC3120EE34037900BDC
:10186000ABE025E0FF900BAAE033FE74B42FF582C5
:1018700074073EF583E0FEA3E0FFE4FCFD900BA6B9
:10188000E0F8A3A3A3E0D3120EE35009900BAAA3A0
:10189000E0A3F08011900BABE024FFF0900BAAE0E6
:1018A00034FFF00217B5900BAEE0FF900BAAE4F006
:1018B000A3EFF0900BAAE0FEA3E0FFC394DBEE647D
:1018C00080948040030219A8301260EF25E0FFEEFB
:1018D00033FE74B22FF58274073EF583E0FEA3E079
:1018E000FFE4FCFD900BA6E0F8A3E0F9A3E0FAA367
:1018F000E0FBD3120EE34003021997900BABE025F7
:10190000E0FF900BAAE033FE74B42FF58274073E1B
:10191000F583E0FEA3E0FFE4FCFD900BA6E0F8A356
:10192000A3A3E0C3120EE3406E8061900BABE025F1
:10193000E0FF900BAAE033FE74B22FF58274073EED
:10194000F583E0FEA3E0FFE4FCFD900BA6E0F8A326
:10195000E0F9A3E0FAA3E0FBC3120EE34039900BD9
:10196000ABE025E0FF900BAAE033FE74B42FF582C4
:1019700074073EF583E0FEA3E0FFE4FCFD900BA6B8
:10198000E0F8A3A3A3E0D3120EE3500B900BAAA39D
:10199000E0900BADF08011900BABE004F07006907E
:1019A0000BAAE004F00218B3900BACE0FFF4600A5D
:1019B000A3E0FEF46004EFB50607E49009D3F0C39A
:1019C00022900BACE0FFA3E0C39F9009D3F0D32299
:1019D000E4FFFEFDFC90097AE0F8A3E0F9A3E0FA49
:1019E000A3E0FBC3120EF9700E900419742DF0A33E
:1019F000F0A3F0A3021D677F807E967D987C009007
:101A0000097AE0F8A3E0F9A3E0FAA3E0FBC3120E21
:101A1000F940559004197420F07B807A9679987873
:101A20000090097AE0FCA3E0FDA3E0FEA3E0FF1232
:101A30000E43EF243090041AF07B407A42790F78FD
:101A40000090097AE0FCA3E0FDA3E0FEA3E0FF1212
:101A50000E43E47B0AFAF9F8120E43EB24309004AB
:101A60001BF0A3744D021D677F407E427D0F7C00FA
:101A700090097AE0F8A3E0F9A3E0FAA3E0FBC3122F
:101A80000EF940537B407A42790F780090097AE052
:101A9000FCA3E0FDA3E0FEA3E0FF120E43EF243021
:101AA000900419F0A3742EF07BA07A867901780057
:101AB00090097AE0FCA3E0FDA3E0FEA3E0FF120E94
:101AC00043E47B0AFAF9F8120E43EB243090041B2E
:101AD000F0A3744D021D677FA07E867D017C00907F
:101AE000097AE0F8A3E0F9A3E0FAA3E0FBC3120E41
:101AF000F940767BA07A867901780090097AE0FC3B
:101B0000A3E0FDA3E0FEA3E0FF120E43EF2430901C
:101B10000419F0E47B107A27F9F890097AE0FCA325
:101B2000E0FDA3E0FEA3E0FF120E43E47B0AFAF916
:101B3000F8120E43EB243090041AF0E47BE87A03A9
:101B4000F9F890097AE0FCA3E0FDA3E0FEA3E0FF32
:101B5000120E43E47B0AFAF9F8120E43EB2430909C
:101B6000041BF0A3746B021D67E47F107E27FDFC4D
:101B700090097AE0F8A3E0F9A3E0FAA3E0FBC3122E
:101B80000EF940539004197420F0E47B107A27F981
:101B9000F890097AE0FCA3E0FDA3E0FEA3E0FF12C9
:101BA0000E43EF243090041AF0E47BE87A03F9F84E
:101BB00090097AE0FCA3E0FDA3E0FEA3E0FF120E93
:101BC00043E47B0AFAF9F8120E43EB243090041B2D
:101BD000F0A3746B021D67E47FE87E03FDFC9009AF
:101BE0007AE0F8A3E0F9A3E0FAA3E0FBC3120EF950
:101BF0004050E47BE87A03F9F890097AE0FCA3E02E
:101C0000FDA3E0FEA3E0FF120E43EF243090041981
:101C1000F0A3742EF0E47B64FAF9F890097AE0FC02
:101C2000A3E0FDA3E0FEA3E0FF120E43E47B0AFA6B
:101C3000F9F8120E43EB243090041BF0A3746B02EE
:101C40001D67E47F64FEFDFC90097AE0F8A3E0F9EB
:101C5000A3E0FAA3E0FBC3120EF9406B90041974E1
:101C600020F0E47B64FAF9F890097AE0FCA3E0FD47
:101C7000A3E0FEA3E0FF120E43EF243090041AF01D
:101C8000E47B0AFAF9F890097AE0FCA3E0FDA3E00E
:101C9000FEA3E0FF120E43E47B0AFAF9F8120E43AA
:101CA000EB243090041BF0E47B0AFAF9F890097AEF
:101CB000E0FCA3E0FDA3E0FEA3E0FF120E43EB2453
:101CC0003090041C021D67E47F0AFEFDFC90097A37
:101CD000E0F8A3E0F9A3E0FAA3E0FBC3120EF94099
:101CE000459004197420F0A3F0E47B0AFAF9F89007
:101CF000097AE0FCA3E0FDA3E0FEA3E0FF120E439F
:101D0000EF243090041BF0E47B0AFAF9F890097A8A
:101D1000E0FCA3E0FDA3E0FEA3E0FF120E43EB24F2
:101D20003090041C8041E47F01FEFDFC90097AE0C4
:101D3000F8A3E0F9A3E0FAA3E0FBC3120EF9402BED
:101D40009004197420F0A3F0A3F0E47B0AFAF9F8E8
:101D500090097AE0FCA3E0FDA3E0FEA3E0FF120EF1
:101D600043EB243090041CF0E4A3F07B017A047967
:101D70001922200903021E3390098AE0FF3395E0FF
:101D8000FEEF4E6003021E44900981E0FFFD339593
:101D9000E0FCD3ED9402EC648094805003021E4476
:101DA000EF24FC601104701D900BA6E4F0A37402F4
:101DB000F0A314F0801C900BA6E4F0A37404F0A32D
:101DC0007402F0800D900BA6E4F0A37408F0A374E5
:101DD00003F0900982E0F8A3E0F9A3E0FAA3E0FBA6
:101DE0009009D3E0FFE4FCFDFEEB2FFFEE3AFEEDA1
:101DF00039FDEC38FC900982120F709009A6E47549
:101E0000F001120D29FED3900BA7E095F0900BA6E0
:101E1000E09E4003022075900982E0FCA3E0FDA350
:101E2000E0FEA3E0FF900BA8E0F9F8120F0A90097A
:101E3000D3EFF0E49009A6F0A3F0900982120F7C92
:101E400000000000900981E0B40C004003021FF67E
:101E5000901E57F8282873021E7B021EA2021EC085
:101E6000021EDE021EFC021F1B021F3A021F590245
:101E70001F77021F95021FB3021FD19009D3E0FC08
:101E8000E4120BCFA804A905AA06AB07E4FFFE7D68
:101E9000487C42120B17E4FBFAF9783F12091D0245
:101EA0001FED9009D3E0FCE4120BCFA804A905AA0A
:101EB00006AB07E4FFFE7DFA7C42120B17021FED12
:101EC0009009D3E0FCE4120BCFA804A905AA06AB45
:101ED00007E4FFFE7D7A7C43120B17021FED900989
:101EE000D3E0FCE4120BCFA804A905AA06AB07E4D3
:101EF000FFFE7DFA7C43120B17021FED9009D3E021
:101F0000FCE4120BCFA804A905AA06AB077F007E4C
:101F1000407D9C7C44120B17021FED9009D3E0FC1E
:101F2000E4120BCFA804A905AA06AB077F007E40E8
:101F30007D1C7C45120B17021FED9009D3E0FCE4D9
:101F4000120BCFA804A905AA06AB077F007E407D2F
:101F50009C7C45120B17021FED9009D3E0FCE412A4
:101F60000BCFA804A905AA06AB077F007E507D43CE
:101F70007C46120B1780769009D3E0FCE4120BCF5D
:101F8000A804A905AA06AB077F007E507DC37C4646
:101F9000120B1780589009D3E0FCE4120BCFA80471
:101FA000A905AA06AB077F007E507D437C47120B34
:101FB00017803A9009D3E0FCE4120BCFA804A905DE
:101FC000AA06AB077F007E247DF47C47120B1780A6
:101FD0001C9009D3E0FCE4120BCFA804A905AA06C3
:101FE000AB077F007E247D747C48120B17120C0314
:101FF00090097A120F7090097AE0FCA3E0FDA3E04B
:10200000FEA3E0FFE4120BC5123581C004C005C079
:1020100006C0077FCD7ECC7D2C7C40123581A80484
:10202000A905AA06AB07D007D006D005D004120B2D
:10203000177BDD7AB57984783C120A0E7BBC7A96E0
:102040007970783F12091DC004C005C006C0079012
:10205000097AE0FCA3E0FDA3E0FEA3E0FFE4120B9D
:10206000C5D003D002D001D000120B17120C039080
:10207000097A120F7022900B90EFF0A3EDF0C202DC
:102080003005030222F87E017FB87D007B017A09CA
:1020900079D8120FDA7E007F7E7D007B017A0B7982
:1020A00094120FDA7F0F124725900973EEF0A3EF19
:1020B000F090097FE0FEA3E0FFEE3395E0FDFCC069
:1020C000079009A2E0FBA3E0FAA3E0F9900973E00E
:1020D000FFA3E0900C19CFF0A3EFF0900977E0FF99
:1020E000A3E0900C1BCFF0A3EFF0D0071242339087
:1020F0000975EEF0A3EFF0900B91E0FF1242A012F1
:102100004991E0FF124996A3E0640B703ED291A37F
:10211000F0900B92E0C394DC7480948050283005DA
:10212000030222F8124991900B92E075F002A42468
:10213000D8F582E5F03409F583EEF0A3EFF0900BCB
:1021400092E004F080CBC2910222F690098AE070FE
:10215000030222B3C291900B937401F0900B93E0B1
:10216000D3943E74809480502B3005030222F812E1
:102170000006124556124991900B93E025E02494F5
:10218000F582E4340BF583EEF0A3EFF0900B93E0CF
:1021900004F080C8D2913005030222F8900B93E03E
:1021A000D3943E7480948040127401F0900C10E03F
:1021B000FFA3E0900B94CFF0A3EFF0124556124925
:1021C00091900B93E0FD25E02494F582E4340BF527
:1021D00083EEF0A3EFF0ED25E02492F582E4340BDA
:1021E000F583E0FEA3E0FFED25E02494F582E434DE
:1021F0000BF583E0FCA3E0FD900975E0FAA3E0FB9A
:10220000A20A92141246925004C2918008900B9335
:10221000E004F08081E4900B92F0900B92E0C39484
:102220009E74809480502E3005030222F81200061E
:10223000124556124991900B92E075F002A4245475
:10224000F582E5F0340AF583EEF0A3EFF0900B92FF
:10225000E004F080C5E4900B92F0900B92E0FFC395
:10226000943E7480948040030222F63005030222DB
:10227000F8900B93E004F0D3943E74809480400374
:102280007401F0900B93E025E02494F582E4340B84
:10229000F583E0FCA3E0FD75F002EFA424D8F582FD
:1022A000E5F03409F583ECF0A3EDF0900B92E00437
:1022B000F080A7D291E4900B92F0900B92E0C3943F
:1022C000DC74809480502D300502802C124991904E
:1022D0000B92E075F002A424D8F582E5F03409F5FC
:1022E00083EEF0A3EFF0120006124556900B92E039
:1022F00004F080C6C291D2027B017A0979D822907B
:102300000BA07401F0A3740BF0A37490F07B017A1E
:102310000BF97D101248B7900BA0E0FBA3E475F019
:1023200001120D3FA9F0FA120CD1FF900977E4F0E9
:10233000A3EFF0E0F8E4F0E8900977F0900BA0E06C
:10234000FBA3E475F001120D3FA9F0FA120CD1FFC6
:10235000900977E0F0A3E04FF0900BA0E0FBA3E43E
:1023600075F001120D3FA9F0FA120CD1900990F00E
:10237000900BA0E0FBA3E475F001120D3FA9F0FA69
:10238000120CD124FF9206900BA0E0FBA3E475F0A1
:1023900001120D3FA9F0FA120CD1900981F0900BB7
:1023A000A0E0FBA3E475F001120D3FA9F0FA120CB6
:1023B000D124FF920B900BA0E0FBA3E475F0011277
:1023C0000D3FA9F0FA120CD1FFE4FCFDFE90096E5E
:1023D000120F7090096EE0FCA3E0FDA3E0FEA3E005
:1023E000FF7808120F3190096E120F7090096EE09D
:1023F000F8A3E0F9A3E0FAA3E0FBC000C001C0022B
:10240000C003900BA0E0FBA3E475F001120D3FA9FF
:10241000F0FA120CD1FFD003D002D001D000EB4F64
:10242000FFEAFEE9FDE8FC90096E120F70900BA028
:10243000E0FBA3E475F001120D3FA9F0FA120CD1F4
:10244000FFE4FCFDFE90096A120F7090096AE0FC3F
:10245000A3E0FDA3E0FEA3E0FF7808120F3190098E
:102460006A120F7090096AE0F8A3E0F9A3E0FAA3FA
:10247000E0FBC000C001C002C003900BA0E0FBA3C2
:10248000E475F001120D3FA9F0FA120CD1FFD00350
:10249000D002D001D000EB4FFFEAFEE9FDE8FC904E
:1024A000096A120F70900BA0E0FBA3E475F0011213
:1024B0000D3FA9F0FA120CD1FF9009C7E4F0A3EF89
:1024C000F0E0F8E4F0E89009C7F0900BA0E0FBA37F
:1024D000E475F001120D3FA9F0FA120CD1FF90093A
:1024E000C7E0F0A3E04FF0900BA0E0FBA3E475F091
:1024F00001120D3FA9F0FA120CD190098AF0900B4D
:10250000A0E0FBA3E475F001120D3FA9F0FA120C54
:10251000D124FF920A900BA0E0FBA3E475F0011216
:102520000D3FA9F0FA120CD124FF9203900BA0E00A
:10253000FBA3E0FAA3E0F9120CD1900979F0023282
:10254000BBE0FCA3E0FDA3E0FEA3E0FF900B941230
:102550000F707FF07ED87DFF7CFF900B94E0F8A396
:10256000E0F9A3E0FAA3E0FBD3120EE34064900B82
:1025700094E0FCA3E0FDA3E0FEA3E0FFEC335052A7
:10258000900413742DF07B187AFC79FF78FF900B80
:1025900094A3A3A3E012476CEF2430900414F0A39B
:1025A000742EF074FF7B9CFAF9F8900B94E0FCA376
:1025B000E0FDA3E0FEA3E0FF12476C74FF7BF6FA98
:1025C000F9F812476CEB2430900416F074FF7BF698
:1025D00080747FF07ED87DFF7CFF900B94E0F8A3A1
:1025E000E0F9A3E0FAA3E0FBD3120EE350739004EA
:1025F00013742DF07BF07AD879FF78FF900B94E07C
:10260000FCA3E0FDA3E0FEA3E0FF12476CEF243043
:10261000900414F07B187AFC79FF78FF900B94E01B
:10262000FCA3E0FDA3E0FEA3E0FF12476C74FF7B78
:10263000F6FAF9F812476CEB2430900415F0A37405
:102640002EF074FF7B9CFAF9F8900B94E0FCA3E069
:10265000FDA3E0FEA3E0FF12476C74FF7BF60227A8
:102660005E900B94E0FCEC3350030226F3E47F1001
:102670007E27FDFC900B94E0F8A3E0F9A3E0FAA319
:10268000E0FB120EE3506C900413742BF0E47BE833
:102690007A03F9F8900B94E0FCA3E0FDA3E0FEA31D
:1026A000E0FF12476CEF2430900414F0A3742EF076
:1026B000E47B64FAF9F8900B94E0FCA3E0FDA3E05E
:1026C000FEA3E0FF12476CE47B0AFAF9F812476CAC
:1026D000EB2430900416F0E47B0AFAF9F8900B949E
:1026E000E0FCA3E0FDA3E0FEA3E0FF12476CE47B67
:1026F0000A806B900413742BF0E47B107A27F9F8AE
:10270000900B94E0FCA3E0FDA3E0FEA3E0FF1247E2
:102710006CEF2430900414F0E47BE87A03F9F8902D
:102720000B94E0FCA3E0FDA3E0FEA3E0FF12476CE6
:10273000E47B0AFAF9F812476CEB2430900415F0A8
:10274000A3742EF0E47B64FAF9F8900B94E0FCA3F8
:10275000E0FDA3E0FEA3E0FF12476CE47B0AFAF978
:10276000F812476CEB2430900417F0E4A3F07B01DF
:102770007A04791322200B03022985E47B64FAF999
:10278000F89009D4E0FCA3E0FDA3E0FEA3E0FF1273
:10279000476CE47B0AFAF9F812476CAC00AD01AE65
:1027A00002AF03E47B05FAF9F8D3120EE3502F9041
:1027B00009D4E0FCA3E0FDA3E0FEA3E024F4FFEED7
:1027C0003401FEE43DFDE43CFCE47BE87A03F812CE
:1027D000476CE47BE87A03F9F8120DB88030E47BAB
:1027E000E87A03F9F89009D4E0FCA3E0FDA3E0FE49
:1027F000A3E0FF12476CE47BE87A03F9F8120DB806
:10280000EF24F4FFEE3401FEE43DFDE43CFC9009CE
:102810006E120F70E47B64FAF9F890098BE0FCA368
:10282000E0FDA3E0FEA3E0FF12476CE47B0AFAF9A7
:10283000F812476CAC00AD01AE02AF03E47B05FAC1
:10284000F9F8D3120EE3502F90098BE0FCA3E0FDC2
:10285000A3E0FEA3E024F4FFEE3401FEE43DFDE43A
:102860003CFCE47BE87A03F812476CE47BE87A03EB
:10287000F9F8120DB88030E47BE87A03F9F8900992
:102880008BE0FCA3E0FDA3E0FEA3E0FF12476CE4B5
:102890007BE87A03F9F8120DB8EF24F4FFEE340167
:1028A000FEE43DFDE43CFC90099E120F70E47B6465
:1028B000FAF9F89009CFE0FCA3E0FDA3E0FEA3E065
:1028C000FF12476CE47B0AFAF9F812476CAC00ADD2
:1028D00001AE02AF03E47B05FAF9F8D3120EE35020
:1028E00031E47BE87A03F89009CFE0FCA3E0FDA394
:1028F000E0FEA3E0FF12476CE47BE87A03F9F812EC
:102900000DB8EF24F4FFEE3401FEE43DFDE43CFCA1
:102910008022E47BE87A03F9F89009CFE0FCA3E099
:10292000FDA3E0FEA3E0FF12476CE47BE87A03F925
:10293000F8120DB890096A120F70E47F307E75FDB1
:10294000FC90096EE0F8A3E0F9A3E0FAA3E0FBD362
:10295000120EE3400A90096E120F7C000075307F62
:10296000087ED57DFF7CFF90096AE0F8A3E0F9A31B
:10297000E0FAA3E0FBC3120EE3500A90096A120FBB
:102980007CFFFFD508221232BB900BA07401F0A38C
:10299000740BF0A37490F0900977E0FF900BA0E027
:1029A000FBA3E475F001120D3FA9F0FAEF120D1729
:1029B000900977A3E0FF900BA0E0FBA3E475F00182
:1029C000120D3FA9F0FAEF120D17900990E0FF9059
:1029D0000BA0E0FBA3E475F001120D3FA9F0FAEFA4
:1029E000120D17A206E433FF900BA0E0FBA3E475E1
:1029F000F001120D3FA9F0FAEF120D17900981E0D6
:102A0000FF900BA0E0FBA3E475F001120D3FA9F0CD
:102A1000FAEF120D17A20BE433FF900BA0E0FBA31B
:102A2000E475F001120D3FA9F0FAEF120D179009AD
:102A30006EE0FCA3E0FDA3E0FEA3E0FF7808120F28
:102A40001D900BA0E0FBA3E475F001120D3FA9F06F
:102A5000FAEF120D1790096EA3A3A3E0FF900BA04D
:102A6000E0FBA3E475F001120D3FA9F0FAEF120D9F
:102A70001790096AE0FCA3E0FDA3E0FEA3E0FF7865
:102A800008120F1D900BA0E0FBA3E475F001120DDE
:102A90003FA9F0FAEF120D1790096AA3A3A3E0FF74
:102AA000900BA0E0FBA3E475F001120D3FA9F0FA32
:102AB000EF120D179009C7E0FF900BA0E0FBA3E415
:102AC00075F001120D3FA9F0FAEF120D179009C72A
:102AD000A3E0FF900BA0E0FBA3E475F001120D3F13
:102AE000A9F0FAEF120D1790098AE0FF900BA0E011
:102AF000FBA3E475F001120D3FA9F0FAEF120D17D8
:102B0000A20AE433FF900BA0E0FBA3E475F00112EE
:102B10000D3FA9F0FAEF120D17A203E433FF900B5B
:102B2000A0E0FBA3E475F001120D3FA9F0FAEF124B
:102B30000D17900979E0FF900BA0E0FBA3E0FAA34A
:102B4000E0F9EF120D177B017A0B79907D10023AB4
:102B50006D900B92EDF0A3EBF0900B91EFF0C211A2
:102B6000D394817480948040037481F0900B92E040
:102B7000D3943F748094804003743FF0900B93E0B3
:102B8000D394817480948040037481F0900B94E01E
:102B9000D3943F748094804003743FF0900B91E095
:102BA000FF900B93E0C39FFFE49400FE124AE9906C
:102BB0000B95EFF0900B92E0FF900B94E0C39FFF1A
:102BC000E49400FE124AE9900B96EFF0900B95E02A
:102BD000FED36480F8EF6480984038D211900B9A4D
:102BE000EEF0900B96E0900B95F0A3EEF0900B9129
:102BF000E0FF900B9AF0900B92E0900B91F0A3EF16
:102C0000F0A3E0FF900B9AF0900B94E0900B93F000
:102C1000A3EFF0900B93E0FF900B91E0FED39F4069
:102C200025900B9AEEF0900B91EFF0900B93EEF055
:102C3000900B92E0FF900B9AF0900B94E0900B9227
:102C4000F0900B94EFF0900B95E0A2E713FE339514
:102C5000E0900B98F0A3CEF0900B94E0FF900B92D5
:102C6000E0C39F900B9750057401F0800374FFF050
:102C7000900B93E0FE900B91E0FFD39E505D2011EE
:102C800003A38008900B92E0FF900B91E0FD123FB0
:102C9000EC900B96E0FF3395E0FEC3900B99E09F1C
:102CA000FF900B98E09EFEF0A3EFF0C3EE648094DB
:102CB000805020900B97E0FF900B92E02FF0900B4C
:102CC00095E0FF3395E0FE900B99E02FF0900B9884
:102CD000E03EF0900B91E004F0809522300D39C277
:102CE0000D124A967B0BE4FD7F30123BFA7B0BE41E
:102CF000FD7F58123BFA7B27E4FD7F31123CAE7B0F
:102D0000277D0A7F31123CAE7D027F32124B297B38
:102D1000FF7A4E798312419FC212124B607D0F7F62
:102D200026124B297BFF7A4E798A12419FA206E434
:102D30003325E0FFE433FE74A92FF58274093EF5D4
:102D400083E0FEA3E0AA06F97BFF12419F7D197F75
:102D50002D124B297BFF7A4E799112419F7BFF7A8E
:102D60004E799612419F7D197F46124B2990097723
:102D7000E0FEA3E0FFE4FCFD900B947403F0123935
:102D8000847D237F2D124B297BFF7A4E799A124145
:102D90009F7BFF7A4E799612419F7D237F46124B8F
:102DA00029900979E0FFE4FCFDFE900B947403F098
:102DB0001239847D2D7F23124B297BFF7A4E799F18
:102DC00012419F9009ADE0FEA3E0FFE4FCFD122557
:102DD0004C12419F7BFF7A4E794812419FC21212DA
:102DE0004B60900972E0FF3395E0FEEF4E70187B68
:102DF0007D7D0F7F6512341A7B207D1E7F5F12342C
:102E00001A7B207D2D804C900972E0FF3395E0FE07
:102E1000EF64014E70187B207D0F7F6512341A7BA2
:102E20007D7D197F5F12341A7B207D2380259009D8
:102E300072E0FF3395E0FEEF64024E701B7B207D55
:102E40000F7F6512341A7B207D197F5F12341A7B45
:102E50007D7D237F5A12341AD212024B6020160352
:102E6000022F20E47FE87E03FDFC90096EE0F8A3CA
:102E7000E0F9A3E0FAA3E0FBD3120EE390096EE0C1
:102E8000FC5034A3E0FDA3E0FEA3E0C39464FFEE96
:102E90009400FEED9400FDEC9400FC90096E120F7E
:102EA0007090099EE0FCA3E0FDA3E0FEA3E0C394C4
:102EB00064FFEE94008032A3E0FDA3E0FEA3E0C334
:102EC00094F4FFEE9401FEED9400FDEC9400FC9070
:102ED000096E120F7090099EE0FCA3E0FDA3E0FED6
:102EE000A3E0C394F4FFEE9401FEED9400FDEC9496
:102EF00000FC90099E120F7090096AE0FCA3E0FDAF
:102F0000A3E0FEA3E0FF90096EE0F8A3E0F9A3E0E0
:102F1000FAA3E0FBD3120EE34003022FDAD20B2216
:102F2000C20BE47FE87E03FDFC90096EE0F8A3E0AD
:102F3000F9A3E0FAA3E0FBC3120EE390096EE0FCF4
:102F40004030A3E0FDA3E0FEA3E024F4FFEE340153
:102F5000FEE43DFDE43CFC90096E120F7090099E6A
:102F6000E0FCA3E0FDA3E0FEA3E024F4FFEE3401C7
:102F7000802CA3E0FDA3E0FEA3E02464FFE43EFE7A
:102F8000E43DFDE43CFC90096E120F7090099EE058
:102F9000FCA3E0FDA3E0FEA3E02464FFE43EFEE426
:102FA0003DFDE43CFC90099E120F70E47F307E757D
:102FB000FDFC90096EE0F8A3E0F9A3E0FAA3E0FBC2
:102FC000D3120EE3401490096E120F7C000075308E
:102FD00090099E120F7C0000753022900BA4EEF039
:102FE000C212900BA0EBF0A3EAF0A3E9F030171D9A
:102FF000900BA0E0FBA3E0FAA3E0F9301808120C54
:10300000D1FFEDF4805D120CD14D02314D2018033B
:103010000230B8301251900BA0E0FBA3E0FAA3E01D
:10302000F9120CD1FF900BA4E0FEC374089EFEF8C9
:1030300074FF088002C333D8FCFEEDF44E5F120D1E
:1030400017900BA0E0FBA3E0FAA3E0F9120CD1FF6C
:10305000900BA4E0FEF874FF088002C313D8FCFEB6
:10306000EDF45E4F02314D900BA0E0FBA3E0FAA31C
:10307000E0F9120CD1FF900BA4E0FEC374089EFE91
:10308000F874FF088002C313D8FCFEEDF44E5F1203
:103090000D17900BA0E0FBA3E0FAA3E0F9120CD10E
:1030A000FF900BA4E0FEF874FF088002C333D8FC45
:1030B000FEEDF45E4F02314D30124A900BA0E0FB62
:1030C000A3E0FAA3E0F9120CD1FF900BA4E0FEC339
:1030D00074089EFEF874FF088002C333D8FC4D5F6D
:1030E000120D17900BA0E0FBA3E0FAA3E0F9120C7D
:1030F000D1FF900BA4E0FEF874FF088002C313D840
:10310000FC5D4F8048900BA0E0FBA3E0FAA3E0F940
:10311000120CD1FF900BA4E0FEC374089EFEF8745D
:10312000FF088002C313D8FC4D5F120D17900BA04F
:10313000E0FBA3E0FAA3E0F9120CD1FF900BA4E0AE
:10314000FEF874FF088002C333D8FC5D4F120D17E0
:1031500022C20B20160302320B90096EE0FCA3E0A2
:10316000FDA3E0FEA3E0C39464FFEE9400FEED94A3
:1031700000FDEC9400FC90096E120F7090096AE05B
:10318000FCA3E0FDA3E0FEA3E0C39464FFEE940083
:10319000FEED9400FDEC9400FC90096A120F709013
:1031A000099EE0FCA3E0FDA3E0FEA3E0C39464FF5E
:1031B000EE9400FEED9400FDEC9400FC90099E124C
:1031C0000F707F6C7ED57DFF7CFF90096AE0F8A3CD
:1031D000E0F9A3E0FAA3E0FBC3120EE340030232DE
:1031E000BA90096EE0FCA3E0FDA3E0FEA3E0246436
:1031F000FFE43EFEE43DFDE43CFC90096E120F70DE
:1032000090096A120F7CFFFFD5082290099EE0FC0E
:10321000A3E0FDA3E0FEA3E02464FFE43EFEE43D62
:10322000FDE43CFC90099E120F7090096EE0FCA337
:10323000E0FDA3E0FEA3E02464FFE43EFEE43DFDE8
:10324000E43CFC90096E120F7090096AE0FCA3E068
:10325000FDA3E0FEA3E02464FFE43EFEE43DFDE4C4
:103260003CFC90096A120F70E47F307E75FDFC9083
:10327000096EE0F8A3E0F9A3E0FAA3E0FBD3120E95
:10328000E3403790096E120F7C0000753090099E64
:10329000120F7C0000753090096AE0FCA3E0FDA3EA
:1032A000E0FEA3E0C39464FFEE9400FEED9400FD05
:1032B000EC9400FC90096A120F7022900977E0FEEE
:1032C000A3E0FFD394EEEE94025009C3EF940AEE0C
:1032D0009400500A9009777401F0A374CCF090091F
:1032E00081E0FF3395E0FED3EF940BEE6480948091
:1032F0005008C3EE648094805005E4900981F0E4A6
:103300007F307E75FDFC90096EE0F8A3E0F9A3E044
:10331000FAA3E0FBD3120EE350177F087ED57DFFA2
:103320007CFF90096EE0F8A3A3A3E0C3120EE35064
:103330000A90096E120F7C00000000E47F307E7559
:10334000FDFC90096AE0F8A3E0F9A3E0FAA3E0FB32
:10335000D3120EE350177F087ED57DFF7CFF9009C6
:103360006AE0F8A3A3A3E0C3120EE3500A90096A2F
:10337000120F7C0000000090096AE0FCA3E0FDA3AE
:10338000E0FEA3E0FF90096EE0F8A3E0F9A3E0FA05
:10339000A3E0FBD3120EE3501690096AE0FCA3E011
:1033A000FDA3E0FEA3E0FF90096E120F70D20B9018
:1033B000097FE0FEA3E0FFD39430EE648094F550E3
:1033C0000BC3EF9408EE64809455500A90097F7403
:1033D00007F0A374D0F090098AE0FF3395E0FED3A4
:1033E000EF9402EE648094805008C3EE6480948071
:1033F0005005E490098AF0900979E0FF7E00D394AB
:103400001974809480500AC3EF94017480948050A2
:1034100006900979740AF00247EB900B99EDF09051
:103420000B98EFF0FAA3E0FE5407900B9FF0EB240B
:10343000E0900B9AF0EE131313541F75F082A4FF63
:10344000EA7C002FFFEC35F0FE74002FF974003E8B
:10345000FA900B9C7401F0A3EAF0A3E9F090041237
:10346000E0FFECC39F5047900B9AE075F006A42450
:1034700068F582E5F0344BF583E5822CF582E4357E
:1034800083F583E493FF900B9FE0FEF8EF08800242
:10349000C333D8FCFF900B9BF0FDA3E0FBA3E475C6
:1034A000F001120D3FA9F0FA122FDB0C80AF900B48
:1034B0009FE07003023550900B99E0FFC39438747D
:1034C0008094804003023550EF131313541F75F09E
:1034D00082A4FF900B98E07C002FFFEC35F0FE7487
:1034E000822FF974003EFA900B9C7401F0A3EAF06D
:1034F000A3E9F0900412E0FFECC39F5053900B9AA5
:10350000E075F006A42468F582E5F0344BF583E518
:10351000822CF582E43583F583E493FF900B9FE0E2
:10352000FEC374089EFEF8EF088002C313D8FCFFA8
:10353000900B9BF0FDA3E0FBA3E475F001120D3F9F
:10354000A9F0FA900BA4EEF0D212122FE20C80A395
:10355000223E9248DA3ECCCCCD3F2AAAAB400000B6
:10356000003F8000003F9837F03FB504F33FD74459
:10357000FC3E3172173EB172173F0515913EDE5B7E
:10358000D9D2118002C211EDD2E7F8CD33EC330469
:10359000700BBD800592D5020C79020C6F40FBD3F5
:1035A0001460F2F5F07C3FEE7A00C39496C8948BD9
:1035B00040230AC89469C8941A401A0AC89468C873
:1035C000941F40110AC8945AC89425400805F07AFF
:1035D00000CDC2E7CDC0F0900BA9120F70EA2323F3
:1035E000C0E02461F582E43435F583120F601209DE
:1035F0001DECC0E0EDC0E0EEC0E0EFC0E0120F4413
:10360000900BA9120F54120919D0E0FBD0E0FAD0A8
:10361000E0F9D0E0B2E7F8120B17900BA9120F7087
:103620009035517403120C84900BA9120F54120A96
:103630000ED0E0600F246DF582E43435F583120F6F
:103640006012091D900BA9120F70D0E0C3947FFD8A
:10365000E49400FC120BCA7B187A727931783F121D
:103660000A0E900BA9120F5412091D30110B7BD9B1
:103670007A5B79DE783E120A0E223001213004078F
:10368000A215921602488530030AA215921612312D
:1036900051D21022A2159216124853C200223004B1
:1036A00031900972E0FF3395E0FEEF4E7005124B4A
:1036B00065801CEF64014E7009A2159216124648EF
:1036C000800DEF64024E7007A21592161248E8D2E0
:1036D000072230030AA21592161244F8D210229043
:1036E000097EE0FB3395E0FAEB4A701EA2159216B4
:1036F0001249DAD210D200E49009A6F0A3F09009A2
:1037000082120F7C000000008037EB64014A700DCC
:10371000A2159216122E5DD210C200802490097E4E
:10372000E0FD3395E0FCED64024C7009A2159216A1
:10373000123EA98008ED64034C7006B20AC210C2A2
:103740000090097EE0FF3395E0FEEF64044E701FA9
:10375000A21592161248211247EBD210D200E49023
:1037600009A6F0A3F0900982120F7C0000000090DF
:10377000097EE0FF3395E0FEEF64054E701390097B
:1037800090E07F0070027F01900990EFF0C210C2BC
:1037900000D20722300603023835E4900B90F090F7
:1037A0000B90E0FEC3945F74809480400302383530
:1037B000EE2420FFC007900999E0F9FD3395E0FC65
:1037C0009009A5E02DFDE43CFCEE7E002DFFEE3CD3
:1037D000FEEF7802C333CE33CED8F9247BF5827462
:1037E000033EF583A3A3A3E0FDC005900B90E0FF8B
:1037F0002421FBE9FD3395E0FC9009A5E02DFDE4D3
:103800003CFC7E00ED2FFFEE3CFEEF7802C333CE92
:1038100033CED8F9247FF58274033EF583A3A3A3A6
:10382000E0900B94F0D005D007122B51900B90E054
:1038300004F002379F300658E4900B90F0900B9004
:10384000E0FED3945F748094805045EE2420FFC046
:1038500007900999E0FD3395E0FC9009A5E02DFD66
:10386000E43CFCEE7E002DFFEE3CFEEF7802C3331D
:10387000CE33CED8F9247BF58274033EF583A3A31F
:10388000A3E0FDD007123FEC900B90E004F080AD78
:1038900022C0E0C0F0C083C082C0D075D000C0009C
:1038A000C004C005C006C007E5A054026402900C25
:1038B0001FF0A3E0FF900C1FE0FE6FFFEE5F900C87
:1038C0001EF0900C20EEF0E5A054046404900C224D
:1038D000F0A3E0FF900C22E0FE6FFFEE5F900C2162
:1038E000F0900C23EEF0E5C8F4900C25F0A3E0FF77
:1038F000900C25E0FE6FFFEE5F900C24F0900C26FC
:10390000EEF0900C1EE0601220040AB203D207D23F
:1039100005D20CC200900C1EE4F0900C21E0604433
:10392000B20430040ED20CD20FC28DD28CC289D216
:10393000A8802AC28CC28D90097A120F7C000000E8
:1039400000C2089009D4120F7C000000009009CF3B
:10395000120F7C00000000D20CD210C200D20590E1
:103960000C21E4F0900C24E06005758100E4F0D0B7
:1039700007D006D005D004D000D0D0D082D083D0DC
:10398000F0D0E032900B90120F70E4900B97F09013
:103990000B96F0900B95F0900B94E0F9A3E0FFC329
:1039A000994003023A61C3E99F14FD7F0A1246DC85
:1039B000A804A905AA06AB07900B90E0FCA3E0FDC4
:1039C000A3E0FEA3E0FF120E43E47B0AFAF9F8122B
:1039D0000E43AF03AE07900B97E0701B900B94E083
:1039E00014FFA3E0C39F500FEE7006A3E004F08025
:1039F00067900B977401F0900412E0FFFDC374828E
:103A00009DFDE49400FC900410E0FB3395E0FAD3B4
:103A1000EB9DEC6480F8EA6480984007E4F0A3E052
:103A20002408F0900411E0FD3395E0FCD3ED9438C8
:103A3000EC648094804002E4F0900B96E0FD900BE3
:103A400095E0C39D8FF0A4FF900410E02FFFA3E04A
:103A5000FDEE2430FB12341A900B95E004F002398D
:103A600097900B94E0FF900410E02FF022900BA3AE
:103A7000EBF0A3EAF0A3E9F0A3EDF0E4FFFE124AB5
:103A80005DE4A3F0A3F0900BA7E0FEA3E0FFC3EE7C
:103A9000648094825019124A30EFF46002C322907D
:103AA0000BA8E004F070DF900BA7E004F080D7E4EF
:103AB000900BA7F0A3F0900BA6E0FDA3E0FEA3E01F
:103AC000FFC39D7480F8EE6480985026900BA3E0AD
:103AD000FBA3E0FAA3E0F98F828E83120CEAFD12B9
:103AE0004A17900BA8E004F070CC900BA7E004F00C
:103AF00080C4E4900BA7F0A3F0900BA6E0FDA3E038
:103B0000FEA3E0FFC39D7480F8EE648098503112EC
:103B10004A30900BA3E0FBA3E0FAA3E0F9900BA7D7
:103B2000E0FCA3E0F5828C83120CEA6F6002C322F2
:103B3000900BA8E004F070C1900BA7E004F080B9EE
:103B4000D322C204E4900972F090097EF0C203C24D
:103B500007D209C205C202C210C200D20DC201C200
:103B60000FC20290097A120F7C000000009009A594
:103B70007432F0E4900999F0C2089009D4120F7CD5
:103B8000000000009009CF120F7C00000000E490BC
:103B900009A6F0A3F0900982120F7C00000000C279
:103BA00006900986120F7C000022C49009C7740792
:103BB000F0A374D0F0900995120F7C0000000090E3
:103BC0000991120F7C0000000090098B120F7C00FD
:103BD00000000090099E120F7C00000000900990E8
:103BE0007401F0300905300302C2A8124B4E90094F
:103BF000A2EBF0A3EAF0A3E9F022900B95EDF0A37D
:103C0000EBF0900B94EFF0D3948174809480400398
:103C10007481F0900B96E0FF900B95E0FD2FFFE490
:103C200033FED3EF9440EE64809480400574409D51
:103C3000A3F0900B96E0FF14F0EF6071900B95E00D
:103C4000131313541F75F082A4FF900B94E07C00B3
:103C50002FFFEC35F0FE74012FF974003EFA900B43
:103C6000977401F0A3EAF0A3E9F0900B95E05407F4
:103C7000FFF87401088002C333D8FCFF900B97E073
:103C8000FBA3E475F00130180F120D3FA9F0FA12F2
:103C90000CD1FEEFF45E800A120D3FA9F0FA120C6F
:103CA000D14F120D17900B95E004F0808522900BF8
:103CB00094EDF0AC07A3EBF0FFEC2FFFE433FED361
:103CC000EF9482EE64809480400474829CF0900BA8
:103CD00094E0D3943F748094804003743FF0900B41
:103CE00094E0131313541F75F082A4AD047C002DCF
:103CF000FFEC35F0FE74012FF974003EFA900B963C
:103D00007401F0A3EAF0A3E9F0900B94E05407FFEC
:103D1000F87401088002C333D8FCFF900B95E0FED5
:103D200014F0EE6033301817A3E0FBA3E475F00144
:103D3000120D3FA9F0FA120CD1FEEFF45E80149040
:103D40000B96E0FBA3E475F001120D3FA9F0FA1207
:103D50000CD14F120D1780C322900BA6EEF0A3EFEB
:103D6000F0A3ECF0A3EDF0A3EAF0A3EBF0900BA826
:103D7000E0FEA3E0FF900BA6E0FCA3E0FDD39FECE8
:103D80009E4002800F900BAAE0FEA3E0FFC3ED9FD0
:103D9000EC9E5008900BA6EEF0A3EFF0900BA6E07F
:103DA000FEA3E0FFC3900BA9E09FFF900BA8E09E4D
:103DB000FE900BAEE0FCA3E0FDC3900BADE09DFDDB
:103DC000900BACE09CFC120FADC006C007900BAA94
:103DD000E0FEA3E0FFC3900BA9E09FFF900BA8E0DB
:103DE0009EAB07FAE4F9F8D007D006120E43900B09
:103DF000AFE02FFF900BAEE03EFE900BA6F0A3EFDE
:103E0000F022C205C29130095AC2A8301045C21032
:103E1000D20D300033C2007E017FB87D007B017A75
:103E20000779B2120FDA90097A120F7C00000000B5
:103E3000C2089009D4120F7C000000009009CF1234
:103E40000F7C00000000800D12001E1210061237B9
:103E5000948005C20D1210061245A920034AC2899A
:103E6000D2A82220094220043F300CF7C2A8C20C7D
:103E7000301027C21012001ED20D9009A8E0FF904A
:103E80000981E0B5070812100612379480119009D5
:103E90007A120F7C000000008002C20D1210061280
:103EA00045A9C289D2A880BB22301647C39009C851
:103EB000E094889009C7E064809493400EA3E024C6
:103EC000F4F09009C7E03401F0800E9009C8E024B6
:103ED00064F09009C7E03400F0D39009C8E0943052
:103EE0009009C7E0648094F5404E7475F0A3743077
:103EF000F08045D39009C8E094889009C7E06480B9
:103F00009493500EA3E0249CF09009C7E034FFF096
:103F1000800E9009C8E0240CF09009C7E034FEF050
:103F2000C39009C8E094089009C7E0648094555094
:103F30000774D5F0A37408F09009C8E0245CFE90E3
:103F400009C7E0342B90097FF0A3CEF022D2A5124E
:103F50004AA5C2A5124AA5D2A57FAE12491B7FAEC3
:103F600012491B7F201249167F211249167F7F12AA
:103F7000491B7F221249167F0712491B7F401249B5
:103F80001B7F8112491B900979E075F00AA4FF128A
:103F9000491B7FA112491B7FC812491B7FA61249EA
:103FA0001B7FA812491B7F3F12491B7FD312491662
:103FB0007FD512491B7F2012491B7FD912491B7FD5
:103FC000F212491B7FDA12491B7F1212491B7FDB59
:103FD00012491B7F3012491B7F8D12491B7F14121F
:103FE000491B7FA412491B7FAF02491B900B9BED1D
:103FF000F0AC07900410E0FF3395E0FED3EF94811E
:10400000EE648094804006E4F0A3E004F090041194
:10401000E0FF3395E0FED3EF943FEE648094804060
:1040200002E4F0900B9BE0131313541F75F082A46D
:10403000AD047C002DFFEC35F0FE74012FF9740007
:104040003EFAA37401F0A3EAF0A3E9F0900B9BE021
:104050005407FFF87401088002C333D8FCFF900BAB
:104060009CE0FBA3E475F00130180F120D3FA9F09E
:10407000FA120CD1FEEFF45E800A120D3FA9F0FA9D
:10408000120CD14F120D1722787FE4F6D8FD7581FE
:10409000230240CF024114E493A3F8E493A3400326
:1040A000F68001F208DFF48029E493A3F854072492
:1040B0000CC8C333C4540F4420C8834004F4568052
:1040C0000146F6DFE4800B010204081020408090D6
:1040D0004499E47E019360BCA3FF543F30E509544A
:1040E0001FFEE493A360010ECF54C025E060A840FA
:1040F000B8E493A3FAE493A3F8E493A3C8C582C8F1
:10410000CAC583CAF0A3C8C582C8CAC583CADFE9C5
:10411000DEE780BE4393505394AF5393FD43940224
:1041200053B1E353B2E353950753960743930353B5
:1041300094FCC288D2B8D2A8D28AC2BAD2AA538E6C
:104140007F5389F0758A46758C24C28DD2A9124A94
:1041500072124A85D2AB1222FF123B4212000E129B
:104160003F4D7F06124B551210061245A9D2AFC221
:1041700091300F13C20F7D4E7C027F0C12430A90C8
:1041800009ADEEF0A3EFF0124A4730040512437276
:1041900080DD300505123E0280D51247B080D090F8
:1041A0000B94EBF0A3EAF0A3E9F0900B94E0FBA3EF
:1041B000E0FAA3E0F9120CD1606D900412E0FFC3A5
:1041C00074829FFFE49400FE900410E0FD3395E0BC
:1041D000FCD3ED9FEE6480F8EC6480984007E4F037
:1041E000A3E02408F0900411E0FF3395E0FED3EF44
:1041F0009438EE648094804002E4F0900410E0FF74
:10420000A3E0FD900B94E0FBA3E475F001120D3FD9
:10421000A9F0FA120CD1FB12341A900412E0FF90AC
:104220000410E02FF0808322E0FCA3E0FDA3E0FE79
:10423000A3E0FF900C12120F70900C16EBF0A3EAA3
:10424000F0A3E9F0A3E0FEA3E0FFE4FCFD900C1274
:10425000E0F8A3E0F9A3E0FAA3E0FB120DB8E47BD9
:1042600064FAF9F8120DB8C006C007900C16E0FB0E
:10427000A3E0FAA3E0F9120D55AEF0FBAA06E4F9AB
:10428000F8D007D00612476CC006C007900C1BE0A0
:10429000FEA3E0FBAA06E4F9F8D007D00602476CBB
:1042A000EFB40C0050569042ADF82828730242D16A
:1042B0000242D30242D50242D70242D90242DB0275
:1042C00042DD0242DF0242E70242EF0242F70242CF
:1042D000F7800C800A8008800680048002800090AD
:1042E0000C13740FF08015900C13740AF0800D906D
:1042F0000C137405F08005E4900C13F0900C13E09F
:104300004420F5DE75BC80024B0B900B90EFF0A3C0
:10431000ECF0A3EDF0E4FF1242A07F0F12472590CE
:104320000B93EEF0A3EFF0900B90E0FF12472512F5
:104330004B4E120D55FDACF0120FADA804A905AA05
:1043400006AB07900B91E0FEA3E0FFE4FCFD120D2D
:10435000B8C006C007900B93E0FEA3E0FBAA06E4FA
:10436000F9F8D007D006120E43E47B64FAF9F8029C
:104370000E43C291D20D300439300F13C20F7D4E5F
:104380007C027F0C12430A9009ADEEF0A3EFF030EF
:104390000E13C20E7F8112491B900979E075F00A55
:1043A000A4FF12491B300CCEC20C122CDC1245A902
:1043B00080C4C2AF300712C207C20D122986921103
:1043C0001249B71245A9124AB3D20D12100612456E
:1043D000A9C289C28BD2AF22E0FCA3E0FDA3E0FE1C
:1043E000A3E0FF900BA6120F70120D55FFAEF0E484
:1043F000FCFD900BA6E0F8A3E0F9A3E0FAA3E0FB34
:10440000120DB8A804A905AA06AB07900BAFE0FEF1
:10441000A3E0FFE4FCFD120DB8C006C007900BAD91
:10442000E0FEA3E0FBAA06E4F9F8D007D0061247A5
:104430006CE47B64FAF9F802476CC0E0C0F0C0831A
:10444000C082C0D075D000C000C001C002C003C08F
:1044500004C005C006C007124AA520B31FC2012030
:10446000011A200417C2A8B209300906D210D200DE
:104470008004D20CD210D205C289C28BC28BD00765
:10448000D006D005D004D003D002D001D000D0D0C7
:10449000D082D083D0F0D0E032C118C1974104124D
:1044A0000644042B0000000044042700000FFF44D2
:1044B000041E000000004404220000000041042605
:1044C0000044098600000000410981024409A94F07
:1044D000624F674609C94F6C4F734F7A5809AF4F07
:1044E000814F874F8D4F934F994F9F4FA54FAB4FA4
:1044F000B14FB74FBD4FC30030162E900999E0144D
:10450000F09009A5E0FFFD7C00900999E0FB339550
:10451000E0FAEB2DFDEC3AFCC3ED942FEC648094B3
:10452000805032C3742F9FF022900999E004F090DC
:1045300009A5E0FFFD7C00900999E0FB3395E0FAC6
:10454000EB2DFDEC3AFCD3ED94ACEC648094804010
:104550000474AC9FF022900B91E0FFEFB40B00507D
:1045600047904568F828287302458902458C024522
:104570008F02459202459502459802459B02459E51
:104580000245A10245A40245A7024ACF024AC10240
:104590004B15024B33024B3C024B45024B00024B86
:1045A0001F02000E0200160022900B907401F0A36F
:1045B0007400F0A37400F0E4FDEDC39408748094DB
:1045C000805035ED24B0FF1249167F1012491BE4CC
:1045D000FCECC3948274809480501A900B90E0FBA2
:1045E000A3E475F001120D3FA9F0FA120CD1FF12ED
:1045F00049430C80DC0D80C122C0E0C0F0C083C004
:1046000082C0D075D000C000C001C002C003C00489
:10461000C005C006C007124AF520B304D2018002CB
:10462000C2011249FAD205D20CC28BC289D007D07E
:1046300006D005D004D003D002D001D000D0D0D015
:1046400082D083D0F0D0E032301625900978E00493
:10465000F07006900977E004F0D3900978E094EECA
:10466000900977E0940240297402F0A374EEF022DE
:10467000900978E024FFF0900977E034FFF0C3A3BD
:10468000E0940A900977E094005006E4F0A3740ADD
:10469000F022900C12EEF0A3EFF0A3ECF0A3EDF0FB
:1046A00030141CD3900C13E09B900C12E09A502A0B
:1046B000C3900C15E09B900C14E09A401DD322C3CC
:1046C000900C13E09B900C12E09A400ED3900C15C6
:1046D000E09B900C14E09A500122C322900B98EFBB
:1046E000F0A3EDF0A3120F7C00000001900B99E005
:1046F000FF14F0EF6020A3E0F8A3E0F9A3E0FAA331
:10470000E0FB900B98E0FFE4FCFDFE120DB8900B6F
:104710009A120F7080D6900B9AE0FCA3E0FDA3E004
:10472000FEA3E0FF22900C12EFF0E4FF1242A090F3
:104730000C12E0FF124996E0FF124996E4FBFAFCE6
:10474000ECC39410748094805011900C12E0FF120E
:104750004996EF2BFBEE3AFA0C80E5EAC4F854F0E8
:10476000C868FAEBC4540F48AE02FF22C2D5E83045
:10477000E70FB2D5E4C39BFBE49AFAE499F9E49815
:10478000F8EC30E717B2D51247A2120E43E4C39BF0
:10479000FBE49AFAE499F9E498F88003120E4330A6
:1047A000D50DE4C39FFFE49EFEE49DFDE49CFC2246
:1047B00090098AE0FF3395E0FEEF64024E701DC25F
:1047C000A8D205C20CC210C20912001ED20D1210CE
:1047D000061237941245A9C289D2A822D20D12001E
:1047E0001E1210061237941245A92290098AE06021
:1047F00018900981E0FF3395E0FED3EF940AEE6450
:10480000809480401B740AF022900981E0FF339568
:10481000E0FED3EF940BEE648094804003740BF0C1
:104820002230161A90098AE004F0E0FF3395E0FE8A
:10483000D3EF9402EE648094804017E4F022900954
:104840008AE014F0E03395E0C364809480500374F0
:1048500002F02230161A90097EE004F0E0FF339552
:10486000E0FED3EF9405EE648094804017E4F022DC
:1048700090097EE014F0E03395E0C36480948050AA
:10488000037405F02230161A900972E004F0E0FF7C
:104890003395E0FED3EF9402EE648094804017E4F9
:1048A000F022900972E014F0E03395E0C364809444
:1048B0008050037402F022900BA3EBF0A3EAF0A364
:1048C000E9F0E4FCECC39D501EECFF7E00124A3080
:1048D000900BA3E0FBA3E475F001120D3FA9F0FAE1
:1048E000EF120D170C80DD22301615900979E004C7
:1048F000F0E0D394197480948040187419F08013F8
:10490000900979E014F0E0C394017480948050031E
:104910007401F0D20E2212491BE4FFC2A4C2A3E428
:10492000FEEEC39408748094805015C2A7EF30E760
:1049300004D2A68002C2A6D2A7EF25E0FF0E80E136
:10494000D2A322D2A4C2A3E4FEEEC394087480943E
:10495000805015C2A7EF30E704D2A68002C2A6D2CB
:10496000A7EF25E0FF0E80E1D2A322C0E0C083C004
:1049700082C0D0900C1DE004F0C394287480948011
:104980004006E4F0D20FD20CD0D0D082D083D0E059
:1049900032900B90E0FFE4F5BDF5BE53BCF0EF4262
:1049A000BC43BC400000E5BC30E5FB53BCDFAFBD01
:1049B000EFFEADBEEDFF22C212124B607D377F1EAF
:1049C000124B297BFF3011067A4E79A580047A4E6E
:1049D00079B312419FD212024B60301609900981BF
:1049E000E004F00247EB900981E014F0E03395E039
:1049F000C3648094805002E4F022124AF5A2B230DF
:104A0000B401B35004D215800AA2B230B401B3404D
:104A100005C21512367A2275C78075C5028FC4EE9D
:104A2000F5C3AF058FC275C65A75C6A500024ADC2C
:104A300075C78075C5018FC4EEF5C375C65A75C6B6
:104A4000A500AFC2024ADC900981E0FD7F0E122072
:104A5000769007AFEBF0A3EAF0A3E9F02275C780E8
:104A600075C5038FC4EEF5C375C65A75C6A5000299
:104A70004ADC759850438E01438E0475D78F75D6E6
:104A8000FD438E1022538EBF53890F758B38758D61
:104A900050C28FD28E227E047F107D007B017A006F
:104AA0007900020FDA007F077EDA7D37DDFEDEFC5B
:104AB000DFFA22007F897EF97D91DDFEDEFCDFFAE0
:104AC00022007F027E187D7CDDFEDEFCDFFA227F85
:104AD000037EBD7D43DDFEDEFCDFFA22E4F5C7F593
:104AE000C5F5C675C380F5C422EE30E707C3E49F61
:104AF000FFE49EFE2200007F127E85DEFEDFFC22A8
:104B000000007F067EFCDEFEDFFC22007FB07E50D0
:104B1000DEFEDFFC22007F8C7E3BDEFEDFFC22001F
:104B20007F027EC7DEFEDFFC22EF04900410F0A3BC
:104B3000EDF0227F467E1ADEFEDFFC227F1C7E0621
:104B4000DEFEDFFC227F0DE4FEDEFEDFFC227BFFCB
:104B50007AFD79F722900412EFF022A21192182226
:104B6000A212921722B206220000000000000000EC
:104B7000005F000000000700070000147F147F148E
:104B800000242A7F2A1203231008046200364956A3
:104B9000205000000007000000001C22410000001F
:104BA0000041221C0022147F14220008083E08083D
:104BB000000000403000000808080808000000401D
:104BC0000000002010080402003E5149453E00004C
:104BD000427F4000006251494946002141494D331E
:104BE000001814127F10002745454539003C4A49FA
:104BF000493100017109050300364949493600462B
:104C00004949291E00000014000000004034000043
:104C1000000814224100001414141414000041224E
:104C20001408000201590502003E415D594E007C06
:104C30001211127C007F49494936003E4141412210
:104C4000007F4141413E007F49494941007F0909B8
:104C50000901003E41415171007F0808087F0000B2
:104C6000417F410000204040403F007F0814224126
:104C7000007F40404040007F020C027F007F04081C
:104C8000107F003E4141413E007F09090906003E78
:104C90004151215E007F09192946002649494932C0
:104CA0000001017F0101003F4040403F001F2040C4
:104CB000201F007F2018207F006314081463000366
:104CC00004780403006151494543007F7F4141411D
:104CD000000204081020004141417F7F00100804B9
:104CE0000810808080808080000001020400002085
:104CF00054545478007F4444443800384444444475
:104D000000384444447F00385454545800087E0905
:104D100009020018A4A4A478007F04040478000009
:104D2000447D4000004080847D00007F10102844B6
:104D30000000417F4000007C0438047C007C0404B7
:104D4000047800384444443800FC44444438003873
:104D5000444444FC007C0804040400485454542493
:104D60000000043F4444003C4040207C001C2040A4
:104D7000201C007C4030407C004428102844001C4B
:104D8000A0A0A07C004464544C440406FFFF060429
:104D90002060FFFF6020183C7EFF000020202424BC
:104DA0002424BF6424342824222020001008040274
:104DB0003F45444442424241780000000828488967
:104DC0000E8878080800F80000FF00004020100955
:104DD0000619600000000F40807F000080642C34C2
:104DE0002424EC322222322E23A2600000412191A1
:104DF00089874D552525554D818080001010FF1065
:104E00009000FC04162504447C00000042827F01CF
:104E1000001C11111F11115D81413F0004A4A4A4C5
:104E2000BFA4A40448C8487F48C8080040CF5444E1
:104E300024342F2080432C102C4380004175746F44
:104E40000020202020005400560041004E00530056
:104E50002020202020202020202000487A00527589
:104E60006E200053746F70004661696C0053756367
:104E70006365004D2D4443004D2D4143002020200B
:104E80002020004D696E44534F00504D6F64653DC6
:104E9000004C53423D00202020004252543D005619
:104EA0006261743D00536176652053756363657379
:104EB00073210053617665204661696C2100FFFF14
:104EC0000303EF1FEF0303FFFFFFFFFFFB0303FBE2
:104ED000FFFFFFFFFFFF0303CF9F3F0303FFFFFF22
:104EE000FFFFFB0303FBFFFFFFFFFFFFFFFFFFFFD2
:104EF000FF0303FBF3070FFFFFFFFFFFE7C39B3B2E
:104F000073F7FFFFFFFFFF0703FBFB0307FFFFFF35
:104F10001F1F18181F1F1F18181F1F1F1F1F1B18C8
:104F2000181B1F1F1F1F1F1F18181F1F1F18181FB8
:104F30001F1F1F1F1B18181B1F1F1F1F1F1F1F1F97
:104F40001F1F1F18181B191C1E1F1F1F1F1F1D1995
:104F50001B1B181C1F1F1F1F1F1C181B1B181C1F8F
:104F60001F1F5665637400446F7473004175746F3E
:104F70002020004E6F726D616C0053696E676C6526
:104F8000003530306D73003230306D7300313030A9
:104F90006D73002035306D73002032306D7300204A
:104FA00031306D73002020356D73002020326D7319
:104FB000002020316D730035303075730032303091
:094FC00075730031303075730087
:00000001FF
